{
  "contractName": "Betting",
  "abi": [
    {
      "inputs": [
        {
          "internalType": "uint256",
          "name": "_minWager",
          "type": "uint256"
        }
      ],
      "payable": false,
      "stateMutability": "nonpayable",
      "type": "constructor"
    },
    {
      "constant": false,
      "inputs": [
        {
          "internalType": "uint256",
          "name": "number",
          "type": "uint256"
        }
      ],
      "name": "bet",
      "outputs": [],
      "payable": true,
      "stateMutability": "payable",
      "type": "function"
    },
    {
      "constant": true,
      "inputs": [],
      "name": "getWinningNumber",
      "outputs": [
        {
          "internalType": "uint256",
          "name": "",
          "type": "uint256"
        }
      ],
      "payable": false,
      "stateMutability": "view",
      "type": "function"
    },
    {
      "constant": false,
      "inputs": [],
      "name": "kill",
      "outputs": [],
      "payable": false,
      "stateMutability": "nonpayable",
      "type": "function"
    }
  ],
  "bytecode": "0x608060405260018055600060025560006003556103e760045534801561002457600080fd5b506040516106d43803806106d48339818101604052602081101561004757600080fd5b8101908080519060200190929190505050336000806101000a81548173ffffffffffffffffffffffffffffffffffffffff021916908373ffffffffffffffffffffffffffffffffffffffff16021790555060008111156100a957806001819055505b5061061b806100b96000396000f3fe6080604052600436106100345760003560e01c806341c0e1b5146100395780637365870b146100505780638b0b9ed41461007e575b600080fd5b34801561004557600080fd5b5061004e6100a9565b005b61007c6004803603602081101561006657600080fd5b810190808035906020019092919050505061013a565b005b34801561008a57600080fd5b50610093610356565b6040518082815260200191505060405180910390f35b6000809054906101000a900473ffffffffffffffffffffffffffffffffffffffff1673ffffffffffffffffffffffffffffffffffffffff163373ffffffffffffffffffffffffffffffffffffffff161415610138576000809054906101000a900473ffffffffffffffffffffffffffffffffffffffff1673ffffffffffffffffffffffffffffffffffffffff16ff5b565b60001515600660003373ffffffffffffffffffffffffffffffffffffffff1673ffffffffffffffffffffffffffffffffffffffff16815260200190815260200160002060009054906101000a900460ff1615151461019757600080fd5b600181101580156101a9575060038111155b6101b257600080fd5b600154670de0b6b3a764000034816101c657fe5b0410156101d257600080fd5b34600760003373ffffffffffffffffffffffffffffffffffffffff1673ffffffffffffffffffffffffffffffffffffffff1681526020019081526020016000206000018190555080600760003373ffffffffffffffffffffffffffffffffffffffff1673ffffffffffffffffffffffffffffffffffffffff1681526020019081526020016000206001018190555060053390806001815401808255809150509060018203906000526020600020016000909192909190916101000a81548173ffffffffffffffffffffffffffffffffffffffff021916908373ffffffffffffffffffffffffffffffffffffffff160217905550506001600660003373ffffffffffffffffffffffffffffffffffffffff1673ffffffffffffffffffffffffffffffffffffffff16815260200190815260200160002060006101000a81548160ff0219169083151502179055506003600081548092919060010191905055503460026000828254019250508190555060026003541061035357610352610360565b5b50565b6000600454905090565b6001600342604051602001808281526020019150506040516020818303038152906040528051906020012060001c8161039557fe5b06016004819055506103a56105c4565b6000809050600080905060008090505b6005805490508110156104ec576000600582815481106103d157fe5b9060005260206000200160009054906101000a900473ffffffffffffffffffffffffffffffffffffffff169050600454600760008373ffffffffffffffffffffffffffffffffffffffff1673ffffffffffffffffffffffffffffffffffffffff1681526020019081526020016000206001015414156104de578085856002811061045757fe5b602002019073ffffffffffffffffffffffffffffffffffffffff16908173ffffffffffffffffffffffffffffffffffffffff1681525050600760008273ffffffffffffffffffffffffffffffffffffffff1673ffffffffffffffffffffffffffffffffffffffff168152602001908152602001600020600001548301925083806001019450505b5080806001019150506103b5565b5060008090505b828110156105be5783816002811061050757fe5b602002015173ffffffffffffffffffffffffffffffffffffffff166108fc600254846007600089876002811061053957fe5b602002015173ffffffffffffffffffffffffffffffffffffffff1673ffffffffffffffffffffffffffffffffffffffff168152602001908152602001600020600001548161058357fe5b04029081150290604051600060405180830381858888f193505050501580156105b0573d6000803e3d6000fd5b5080806001019150506104f3565b50505050565b604051806040016040528060029060208202803883398082019150509050509056fea265627a7a723158201fc38fd8dd37c24896d7aba90748a219a77161f1df2dfdd50c233fcfb7636cb964736f6c63430005100032",
  "source": "//SPDX-License-Identifier: GPL:-3.0 \r\npragma solidity ^0.5.0;\r\n\r\ncontract Betting {\r\n    address payable owner;\r\n    uint minWager = 1;\r\n    uint totalWager = 0;\r\n    uint numberOfWagers = 0;\r\n    uint constant MAX_NUMBER_OF_WAGERS = 2;\r\n    uint winningNumber = 999;\r\n    uint constant MAX_WINNING_NUMBER = 3;\r\n    address payable [] playerAddresses;\r\n    mapping (address => bool) playerAddressesMapping;\r\n    struct Player {\r\n        uint amountWagered;\r\n        uint numberWagered;\r\n    }\r\n    mapping (address => Player) playerDetails;\r\n    \r\n    \r\n    //Constructor for the contract\r\n    constructor(uint _minWager) public {\r\n        owner = msg.sender;\r\n        if(_minWager > 0) minWager = _minWager;\r\n    }\r\n    \r\n    \r\n    function bet(uint number) public payable {\r\n        //Check if the player has already bet\r\n        require (playerAddressesMapping[msg.sender]==false);\r\n        //Check the betting number to see that it falls within the required range\r\n        require(number >= 1 && number <= MAX_WINNING_NUMBER);\r\n        //Need to check that the amount betted is the least required\r\n        require ((msg.value/(1 ether)) >=  minWager);\r\n        \r\n        //Record the number and amount wagered by the player\r\n        playerDetails[msg.sender].amountWagered = msg.value;\r\n        playerDetails[msg.sender].numberWagered = number;\r\n        \r\n        //Add the player to the array of those who've already bet\r\n        playerAddresses.push(msg.sender);\r\n        playerAddressesMapping[msg.sender] = true;\r\n        \r\n        //Increment the number of wagers and the amount wagered \r\n        numberOfWagers++;\r\n        totalWager += msg.value;\r\n        \r\n        //Check if the required number of players has been met \r\n        if(numberOfWagers >= MAX_NUMBER_OF_WAGERS) {\r\n            announceWinners();\r\n        }\r\n        \r\n    }    \r\n        \r\n        //Draws a random number and calculate the winnings\r\n        function announceWinners() private {\r\n          winningNumber = uint (keccak256(abi.encodePacked(block.timestamp))) % MAX_WINNING_NUMBER + 1; \r\n          \r\n          //Create an array to store all the winners\r\n          address payable [MAX_NUMBER_OF_WAGERS] memory winners;\r\n          \r\n          uint winnersCount = 0;\r\n          uint totalWinningWager = 0;\r\n          \r\n          //Iterate all the players to check if they've won\r\n          for (uint i = 0; i < playerAddresses.length; i++) {\r\n              address payable playerAddress = playerAddresses[i];\r\n              \r\n              if(playerDetails[playerAddress].numberWagered == winningNumber){\r\n                  //Save the player into the winners array\r\n                  winners[winnersCount] = playerAddress;\r\n                  \r\n                  //Sum up the total wagered amount for the winning numbers \r\n                  totalWinningWager += playerDetails[playerAddress].amountWagered;\r\n                  winnersCount++;\r\n              }\r\n          }\r\n          \r\n          //Make payments to each wiing player\r\n          for (uint j = 0; j < winnersCount; j++){\r\n              winners[j].transfer((playerDetails[winners[j]].amountWagered/totalWinningWager) * totalWager);\r\n              \r\n          }\r\n          \r\n          \r\n          \r\n        }\r\n        \r\n        \r\n    \r\n        \r\n    //Getting the winning number \r\n    function getWinningNumber() public view returns (uint){\r\n        return winningNumber;\r\n    }\r\n    \r\n    \r\n    //Destruct function\r\n    function kill() public {\r\n        if(msg.sender == owner){\r\n            selfdestruct(owner);\r\n        }\r\n    }\r\n    \r\n    \r\n    \r\n    \r\n    \r\n    \r\n    \r\n    \r\n    \r\n    \r\n    \r\n    \r\n    \r\n}",
  "sourcePath": "C:/Users/JOZA/Desktop/Solidity Contracts/Betting/contracts/Betting.sol",
  "compiler": {
    "name": "solc",
    "version": "0.5.16+commit.9c3226ce.Emscripten.clang"
  },
  "schemaVersion": "3.3.2",
  "updatedAt": "2021-06-02T12:50:44.466Z",
  "networkType": "ethereum",
  "devdoc": {
    "methods": {}
  },
  "userdoc": {
    "methods": {}
  }
}