{
  "contractName": "Betting",
  "abi": [
    {
      "inputs": [
        {
          "internalType": "uint256",
          "name": "_minWager",
          "type": "uint256"
        }
      ],
      "payable": false,
      "stateMutability": "nonpayable",
      "type": "constructor"
    },
    {
      "anonymous": false,
      "inputs": [
        {
          "indexed": false,
          "internalType": "uint256",
          "name": "number",
          "type": "uint256"
        }
      ],
      "name": "WinningNumber",
      "type": "event"
    },
    {
      "anonymous": false,
      "inputs": [
        {
          "indexed": false,
          "internalType": "uint256",
          "name": "players",
          "type": "uint256"
        },
        {
          "indexed": false,
          "internalType": "uint256",
          "name": "maxPlayers",
          "type": "uint256"
        }
      ],
      "name": "status",
      "type": "event"
    },
    {
      "constant": false,
      "inputs": [
        {
          "internalType": "uint256",
          "name": "number",
          "type": "uint256"
        }
      ],
      "name": "bet",
      "outputs": [],
      "payable": true,
      "stateMutability": "payable",
      "type": "function"
    },
    {
      "constant": true,
      "inputs": [],
      "name": "getWinningNumber",
      "outputs": [
        {
          "internalType": "uint256",
          "name": "",
          "type": "uint256"
        }
      ],
      "payable": false,
      "stateMutability": "view",
      "type": "function"
    },
    {
      "constant": false,
      "inputs": [],
      "name": "kill",
      "outputs": [],
      "payable": false,
      "stateMutability": "nonpayable",
      "type": "function"
    },
    {
      "constant": true,
      "inputs": [],
      "name": "getStatus",
      "outputs": [
        {
          "internalType": "uint256",
          "name": "",
          "type": "uint256"
        },
        {
          "internalType": "uint256",
          "name": "",
          "type": "uint256"
        }
      ],
      "payable": false,
      "stateMutability": "view",
      "type": "function"
    }
  ],
  "bytecode": "0x608060405260018055600060025560006003556103e760045534801561002457600080fd5b506040516107673803806107678339818101604052602081101561004757600080fd5b8101908080519060200190929190505050336000806101000a81548173ffffffffffffffffffffffffffffffffffffffff021916908373ffffffffffffffffffffffffffffffffffffffff16021790555060008111156100a957806001819055505b506106ae806100b96000396000f3fe60806040526004361061003f5760003560e01c806341c0e1b5146100445780634e69d5601461005b5780637365870b1461008d5780638b0b9ed4146100bb575b600080fd5b34801561005057600080fd5b506100596100e6565b005b34801561006757600080fd5b50610070610177565b604051808381526020018281526020019250505060405180910390f35b6100b9600480360360208110156100a357600080fd5b8101908080359060200190929190505050610187565b005b3480156100c757600080fd5b506100d06103e5565b6040518082815260200191505060405180910390f35b6000809054906101000a900473ffffffffffffffffffffffffffffffffffffffff1673ffffffffffffffffffffffffffffffffffffffff163373ffffffffffffffffffffffffffffffffffffffff161415610175576000809054906101000a900473ffffffffffffffffffffffffffffffffffffffff1673ffffffffffffffffffffffffffffffffffffffff16ff5b565b6000806003546002915091509091565b60001515600660003373ffffffffffffffffffffffffffffffffffffffff1673ffffffffffffffffffffffffffffffffffffffff16815260200190815260200160002060009054906101000a900460ff161515146101e457600080fd5b600181101580156101f6575060038111155b6101ff57600080fd5b600154670de0b6b3a7640000348161021357fe5b04101561021f57600080fd5b34600760003373ffffffffffffffffffffffffffffffffffffffff1673ffffffffffffffffffffffffffffffffffffffff1681526020019081526020016000206000018190555080600760003373ffffffffffffffffffffffffffffffffffffffff1673ffffffffffffffffffffffffffffffffffffffff1681526020019081526020016000206001018190555060053390806001815401808255809150509060018203906000526020600020016000909192909190916101000a81548173ffffffffffffffffffffffffffffffffffffffff021916908373ffffffffffffffffffffffffffffffffffffffff160217905550506001600660003373ffffffffffffffffffffffffffffffffffffffff1673ffffffffffffffffffffffffffffffffffffffff16815260200190815260200160002060006101000a81548160ff021916908315150217905550600360008154809291906001019190505550346002600082825401925050819055506002600354106103a05761039f6103ef565b5b7fb3dd803a70cd7b4aa268248a54c3382624d04d12dc3f540f666f75c2e17e69ed6003546002604051808381526020018281526020019250505060405180910390a150565b6000600454905090565b60016004819055507fccd04777bc0ed6235e241cd9094eacbb82cd67984c5b66f7e045ed07b5aed8b96004546040518082815260200191505060405180910390a1610438610657565b6000809050600080905060008090505b60058054905081101561057f5760006005828154811061046457fe5b9060005260206000200160009054906101000a900473ffffffffffffffffffffffffffffffffffffffff169050600454600760008373ffffffffffffffffffffffffffffffffffffffff1673ffffffffffffffffffffffffffffffffffffffff16815260200190815260200160002060010154141561057157808585600281106104ea57fe5b602002019073ffffffffffffffffffffffffffffffffffffffff16908173ffffffffffffffffffffffffffffffffffffffff1681525050600760008273ffffffffffffffffffffffffffffffffffffffff1673ffffffffffffffffffffffffffffffffffffffff168152602001908152602001600020600001548301925083806001019450505b508080600101915050610448565b5060008090505b828110156106515783816002811061059a57fe5b602002015173ffffffffffffffffffffffffffffffffffffffff166108fc60025484600760008987600281106105cc57fe5b602002015173ffffffffffffffffffffffffffffffffffffffff1673ffffffffffffffffffffffffffffffffffffffff168152602001908152602001600020600001548161061657fe5b04029081150290604051600060405180830381858888f19350505050158015610643573d6000803e3d6000fd5b508080600101915050610586565b50505050565b604051806040016040528060029060208202803883398082019150509050509056fea265627a7a72315820b02c0c0422be9395e0306e39bd7a5a43011c5c8b00ff54b7b8bb3cff723deb0364736f6c63430005100032",
  "source": "//SPDX-License-Identifier: GPL:-3.0 \r\npragma solidity ^0.5.0;\r\n\r\ncontract Betting {\r\n    address payable owner;\r\n    uint minWager = 1;\r\n    uint totalWager = 0;\r\n    uint numberOfWagers = 0;\r\n    uint constant MAX_NUMBER_OF_WAGERS = 2;\r\n    uint winningNumber = 999;\r\n    uint constant MAX_WINNING_NUMBER = 3;\r\n    address payable [] playerAddresses;\r\n    mapping (address => bool) playerAddressesMapping;\r\n    struct Player {\r\n        uint amountWagered;\r\n        uint numberWagered;\r\n    }\r\n    mapping (address => Player) playerDetails;\r\n    \r\n    //Event to announce the winning number\r\n    event WinningNumber ( uint number);\r\n\r\n    //Event to display the status of the game\r\n    event status (uint players, uint maxPlayers);    \r\n\r\n\r\n\r\n\r\n\r\n    //Constructor for the contract\r\n    constructor(uint _minWager) public {\r\n        owner = msg.sender;\r\n        if(_minWager > 0) minWager = _minWager;\r\n    }\r\n    \r\n    \r\n    function bet(uint number) public payable {\r\n        //Check if the player has already bet\r\n        require (playerAddressesMapping[msg.sender]==false);\r\n        //Check the betting number to see that it falls within the required range\r\n        require(number >= 1 && number <= MAX_WINNING_NUMBER);\r\n        //Need to check that the amount betted is the least required\r\n        require ((msg.value/(1 ether)) >=  minWager);\r\n        \r\n        //Record the number and amount wagered by the player\r\n        playerDetails[msg.sender].amountWagered = msg.value;\r\n        playerDetails[msg.sender].numberWagered = number;\r\n        \r\n        //Add the player to the array of those who've already bet\r\n        playerAddresses.push(msg.sender);\r\n        playerAddressesMapping[msg.sender] = true;\r\n        \r\n        //Increment the number of wagers and the amount wagered \r\n        numberOfWagers++;\r\n        totalWager += msg.value;\r\n        \r\n        //Check if the required number of players has been met \r\n        if(numberOfWagers >= MAX_NUMBER_OF_WAGERS) {\r\n            announceWinners();\r\n        }\r\n        \r\n        //Emit the event to inform the client about the status of the game\r\n        emit status(numberOfWagers, MAX_NUMBER_OF_WAGERS);\r\n\r\n\r\n    }    \r\n        \r\n        //Draws a random number and calculate the winnings\r\n        function announceWinners() private {\r\n         // winningNumber = uint (keccak256(abi.encodePacked(block.timestamp))) % MAX_WINNING_NUMBER + 1; \r\n          winningNumber = 1;\r\n\r\n          //Emit the event to announce the winning number\r\n          emit WinningNumber(winningNumber);\r\n\r\n\r\n          //Create an array to store all the winners\r\n          address payable [MAX_NUMBER_OF_WAGERS] memory winners;\r\n          \r\n          uint winnersCount = 0;\r\n          uint totalWinningWager = 0;\r\n          \r\n          //Iterate all the players to check if they've won\r\n          for (uint i = 0; i < playerAddresses.length; i++) {\r\n              address payable playerAddress = playerAddresses[i];\r\n              \r\n              if(playerDetails[playerAddress].numberWagered == winningNumber){\r\n                  //Save the player into the winners array\r\n                  winners[winnersCount] = playerAddress;\r\n                  \r\n                  //Sum up the total wagered amount for the winning numbers \r\n                  totalWinningWager += playerDetails[playerAddress].amountWagered;\r\n                  winnersCount++;\r\n              }\r\n          }\r\n          \r\n          //Make payments to each wiing player\r\n          for (uint j = 0; j < winnersCount; j++){\r\n              winners[j].transfer((playerDetails[winners[j]].amountWagered/totalWinningWager) * totalWager);\r\n              \r\n          }\r\n          \r\n          \r\n          \r\n        }\r\n        \r\n        \r\n    \r\n        \r\n    //Getting the winning number \r\n    function getWinningNumber() public view returns (uint){\r\n        return winningNumber;\r\n    }\r\n    \r\n    \r\n    //Destruct function\r\n    function kill() public {\r\n        if(msg.sender == owner){\r\n            selfdestruct(owner);\r\n        }\r\n    }\r\n    \r\n    function getStatus() public view returns (uint, uint) {\r\n        return (numberOfWagers, MAX_NUMBER_OF_WAGERS);\r\n    }\r\n     \r\n}",
  "sourcePath": "C:/Users/JOZA/Desktop/Solidity Contracts/Betting/contracts/Betting.sol",
  "compiler": {
    "name": "solc",
    "version": "0.5.16+commit.9c3226ce.Emscripten.clang"
  },
  "schemaVersion": "3.3.2",
  "updatedAt": "2021-06-03T07:08:49.885Z",
  "networkType": "ethereum",
  "devdoc": {
    "methods": {}
  },
  "userdoc": {
    "methods": {}
  }
}